{
  "contractName": "MedicalData",
  "abi": [
    {
      "inputs": [],
      "name": "appointmentCount",
      "outputs": [
        {
          "internalType": "uint256",
          "name": "",
          "type": "uint256"
        }
      ],
      "stateMutability": "view",
      "type": "function",
      "constant": true
    },
    {
      "inputs": [
        {
          "internalType": "uint256",
          "name": "",
          "type": "uint256"
        }
      ],
      "name": "appointmentList",
      "outputs": [
        {
          "internalType": "address",
          "name": "",
          "type": "address"
        }
      ],
      "stateMutability": "view",
      "type": "function",
      "constant": true
    },
    {
      "inputs": [],
      "name": "doctorCount",
      "outputs": [
        {
          "internalType": "uint256",
          "name": "",
          "type": "uint256"
        }
      ],
      "stateMutability": "view",
      "type": "function",
      "constant": true
    },
    {
      "inputs": [
        {
          "internalType": "uint256",
          "name": "",
          "type": "uint256"
        }
      ],
      "name": "doctorList",
      "outputs": [
        {
          "internalType": "address",
          "name": "",
          "type": "address"
        }
      ],
      "stateMutability": "view",
      "type": "function",
      "constant": true
    },
    {
      "inputs": [],
      "name": "owner",
      "outputs": [
        {
          "internalType": "address",
          "name": "",
          "type": "address"
        }
      ],
      "stateMutability": "view",
      "type": "function",
      "constant": true
    },
    {
      "inputs": [],
      "name": "patientCount",
      "outputs": [
        {
          "internalType": "uint256",
          "name": "",
          "type": "uint256"
        }
      ],
      "stateMutability": "view",
      "type": "function",
      "constant": true
    },
    {
      "inputs": [
        {
          "internalType": "uint256",
          "name": "",
          "type": "uint256"
        }
      ],
      "name": "patientList",
      "outputs": [
        {
          "internalType": "address",
          "name": "",
          "type": "address"
        }
      ],
      "stateMutability": "view",
      "type": "function",
      "constant": true
    },
    {
      "inputs": [],
      "name": "permissionGrantedCount",
      "outputs": [
        {
          "internalType": "uint256",
          "name": "",
          "type": "uint256"
        }
      ],
      "stateMutability": "view",
      "type": "function",
      "constant": true
    },
    {
      "inputs": [],
      "name": "Record",
      "outputs": [],
      "stateMutability": "nonpayable",
      "type": "function"
    },
    {
      "inputs": [
        {
          "internalType": "string",
          "name": "_name",
          "type": "string"
        },
        {
          "internalType": "string",
          "name": "_phone",
          "type": "string"
        },
        {
          "internalType": "string",
          "name": "_gender",
          "type": "string"
        },
        {
          "internalType": "string",
          "name": "_bloodgroup",
          "type": "string"
        },
        {
          "internalType": "string",
          "name": "_allergies",
          "type": "string"
        },
        {
          "internalType": "string",
          "name": "_medication",
          "type": "string"
        }
      ],
      "name": "setDetails",
      "outputs": [],
      "stateMutability": "nonpayable",
      "type": "function"
    },
    {
      "inputs": [
        {
          "internalType": "string",
          "name": "_name",
          "type": "string"
        },
        {
          "internalType": "string",
          "name": "_phone",
          "type": "string"
        },
        {
          "internalType": "string",
          "name": "_gender",
          "type": "string"
        },
        {
          "internalType": "string",
          "name": "_bloodgroup",
          "type": "string"
        },
        {
          "internalType": "string",
          "name": "_allergies",
          "type": "string"
        },
        {
          "internalType": "string",
          "name": "_medication",
          "type": "string"
        }
      ],
      "name": "editDetails",
      "outputs": [],
      "stateMutability": "nonpayable",
      "type": "function"
    },
    {
      "inputs": [
        {
          "internalType": "string",
          "name": "_name",
          "type": "string"
        },
        {
          "internalType": "string",
          "name": "_phone",
          "type": "string"
        },
        {
          "internalType": "string",
          "name": "_gender",
          "type": "string"
        },
        {
          "internalType": "string",
          "name": "_major",
          "type": "string"
        }
      ],
      "name": "setDoctor",
      "outputs": [],
      "stateMutability": "nonpayable",
      "type": "function"
    },
    {
      "inputs": [
        {
          "internalType": "string",
          "name": "_name",
          "type": "string"
        },
        {
          "internalType": "string",
          "name": "_phone",
          "type": "string"
        },
        {
          "internalType": "string",
          "name": "_gender",
          "type": "string"
        },
        {
          "internalType": "string",
          "name": "_major",
          "type": "string"
        }
      ],
      "name": "editDoctor",
      "outputs": [],
      "stateMutability": "nonpayable",
      "type": "function"
    },
    {
      "inputs": [
        {
          "internalType": "address",
          "name": "_addr",
          "type": "address"
        },
        {
          "internalType": "string",
          "name": "_date",
          "type": "string"
        },
        {
          "internalType": "string",
          "name": "_time",
          "type": "string"
        },
        {
          "internalType": "string",
          "name": "_diagnosis",
          "type": "string"
        },
        {
          "internalType": "string",
          "name": "_prescription",
          "type": "string"
        },
        {
          "internalType": "string",
          "name": "_description",
          "type": "string"
        },
        {
          "internalType": "string",
          "name": "_status",
          "type": "string"
        }
      ],
      "name": "setAppointment",
      "outputs": [],
      "stateMutability": "nonpayable",
      "type": "function"
    },
    {
      "inputs": [
        {
          "internalType": "address",
          "name": "_addr",
          "type": "address"
        },
        {
          "internalType": "string",
          "name": "_date",
          "type": "string"
        },
        {
          "internalType": "string",
          "name": "_time",
          "type": "string"
        },
        {
          "internalType": "string",
          "name": "_diagnosis",
          "type": "string"
        },
        {
          "internalType": "string",
          "name": "_prescription",
          "type": "string"
        },
        {
          "internalType": "string",
          "name": "_description",
          "type": "string"
        },
        {
          "internalType": "string",
          "name": "_status",
          "type": "string"
        }
      ],
      "name": "updateAppointment",
      "outputs": [],
      "stateMutability": "nonpayable",
      "type": "function"
    },
    {
      "inputs": [
        {
          "internalType": "address",
          "name": "_address",
          "type": "address"
        }
      ],
      "name": "givePermission",
      "outputs": [
        {
          "internalType": "bool",
          "name": "success",
          "type": "bool"
        }
      ],
      "stateMutability": "nonpayable",
      "type": "function"
    },
    {
      "inputs": [
        {
          "internalType": "address",
          "name": "_address",
          "type": "address"
        }
      ],
      "name": "RevokePermission",
      "outputs": [
        {
          "internalType": "bool",
          "name": "success",
          "type": "bool"
        }
      ],
      "stateMutability": "nonpayable",
      "type": "function"
    },
    {
      "inputs": [],
      "name": "getPatients",
      "outputs": [
        {
          "internalType": "address[]",
          "name": "",
          "type": "address[]"
        }
      ],
      "stateMutability": "view",
      "type": "function",
      "constant": true
    },
    {
      "inputs": [],
      "name": "getDoctors",
      "outputs": [
        {
          "internalType": "address[]",
          "name": "",
          "type": "address[]"
        }
      ],
      "stateMutability": "view",
      "type": "function",
      "constant": true
    },
    {
      "inputs": [],
      "name": "getAppointments",
      "outputs": [
        {
          "internalType": "address[]",
          "name": "",
          "type": "address[]"
        }
      ],
      "stateMutability": "view",
      "type": "function",
      "constant": true
    },
    {
      "inputs": [],
      "name": "getPatientCount",
      "outputs": [
        {
          "internalType": "uint256",
          "name": "",
          "type": "uint256"
        }
      ],
      "stateMutability": "view",
      "type": "function",
      "constant": true
    },
    {
      "inputs": [],
      "name": "getDoctorCount",
      "outputs": [
        {
          "internalType": "uint256",
          "name": "",
          "type": "uint256"
        }
      ],
      "stateMutability": "view",
      "type": "function",
      "constant": true
    },
    {
      "inputs": [],
      "name": "getAppointmentCount",
      "outputs": [
        {
          "internalType": "uint256",
          "name": "",
          "type": "uint256"
        }
      ],
      "stateMutability": "view",
      "type": "function",
      "constant": true
    },
    {
      "inputs": [],
      "name": "getPermissionGrantedCount",
      "outputs": [
        {
          "internalType": "uint256",
          "name": "",
          "type": "uint256"
        }
      ],
      "stateMutability": "view",
      "type": "function",
      "constant": true
    },
    {
      "inputs": [
        {
          "internalType": "address",
          "name": "_address",
          "type": "address"
        }
      ],
      "name": "getAppointmentPerPatient",
      "outputs": [
        {
          "internalType": "uint256",
          "name": "",
          "type": "uint256"
        }
      ],
      "stateMutability": "view",
      "type": "function",
      "constant": true
    },
    {
      "inputs": [
        {
          "internalType": "address",
          "name": "_address",
          "type": "address"
        }
      ],
      "name": "getPatientDetails",
      "outputs": [
        {
          "internalType": "string",
          "name": "",
          "type": "string"
        },
        {
          "internalType": "string",
          "name": "",
          "type": "string"
        },
        {
          "internalType": "string",
          "name": "",
          "type": "string"
        },
        {
          "internalType": "string",
          "name": "",
          "type": "string"
        },
        {
          "internalType": "string",
          "name": "",
          "type": "string"
        },
        {
          "internalType": "string",
          "name": "",
          "type": "string"
        }
      ],
      "stateMutability": "view",
      "type": "function",
      "constant": true
    },
    {
      "inputs": [
        {
          "internalType": "address",
          "name": "_address",
          "type": "address"
        }
      ],
      "name": "getDoctorDetails",
      "outputs": [
        {
          "internalType": "string",
          "name": "",
          "type": "string"
        },
        {
          "internalType": "string",
          "name": "",
          "type": "string"
        },
        {
          "internalType": "string",
          "name": "",
          "type": "string"
        },
        {
          "internalType": "string",
          "name": "",
          "type": "string"
        }
      ],
      "stateMutability": "view",
      "type": "function",
      "constant": true
    },
    {
      "inputs": [
        {
          "internalType": "address",
          "name": "_address",
          "type": "address"
        }
      ],
      "name": "getAppointmentDetails",
      "outputs": [
        {
          "internalType": "address",
          "name": "",
          "type": "address"
        },
        {
          "internalType": "string",
          "name": "",
          "type": "string"
        },
        {
          "internalType": "string",
          "name": "",
          "type": "string"
        },
        {
          "internalType": "string",
          "name": "",
          "type": "string"
        },
        {
          "internalType": "string",
          "name": "",
          "type": "string"
        },
        {
          "internalType": "string",
          "name": "",
          "type": "string"
        },
        {
          "internalType": "string",
          "name": "",
          "type": "string"
        }
      ],
      "stateMutability": "view",
      "type": "function",
      "constant": true
    }
  ],
  "bytecode": "0x60806040526000600b556000600c556000600d556000600e5534801561002457600080fd5b50612cfc806100346000396000f3fe608060405234801561001057600080fd5b50600436106101c45760003560e01c80638da5cb5b116100f9578063c190665b11610097578063e93a15b911610071578063e93a15b914610502578063eebc3fb214610532578063efe2ccc114610550578063f47e0add14610585576101c4565b8063c190665b146104aa578063c2be10dd146104c8578063e6fce0d2146104d2576101c4565b8063b13d5d94116100d3578063b13d5d941461040b578063bab90dbd14610429578063babb1d411461045c578063c0cb24ba1461048c576101c4565b80638da5cb5b146103b157806396b80d08146103cf578063a0303c41146103ed576101c4565b806329e4afbb1161016657806367cdccba1161014057806367cdccba146103235780636efba5cb1461035957806378522bc41461037557806379111c1c14610393576101c4565b806329e4afbb146102b95780633d391f70146102d757806344487ef014610307576101c4565b806314dd5d93116101a257806314dd5d9314610247578063245f96861461026357806324c24b2b1461027f578063261b73f31461029d576101c4565b806302516abd146101c9578063127ca4b4146101f957806312ad1c3714610229575b600080fd5b6101e360048036038101906101de91906123a0565b6105a1565b6040516101f091906128fd565b60405180910390f35b610213600480360381019061020e91906126d3565b610640565b6040516102209190612827565b60405180910390f35b61023161067f565b60405161023e91906128db565b60405180910390f35b610261600480360381019061025c91906125ba565b61070d565b005b61027d600480360381019061027891906123c9565b610888565b005b610287610b20565b6040516102949190612a24565b60405180910390f35b6102b760048036038101906102b291906123c9565b610b2a565b005b6102c1610ce9565b6040516102ce9190612a24565b60405180910390f35b6102f160048036038101906102ec91906123a0565b610cf3565b6040516102fe91906128fd565b60405180910390f35b610321600480360381019061031c91906125ba565b610dab565b005b61033d600480360381019061033891906123a0565b611098565b6040516103509796959493929190612842565b60405180910390f35b610373600480360381019061036e91906124f7565b611485565b005b61037d6115cc565b60405161038a9190612a24565b60405180910390f35b61039b6115d2565b6040516103a89190612a24565b60405180910390f35b6103b96115dc565b6040516103c69190612827565b60405180910390f35b6103d7611600565b6040516103e491906128db565b60405180910390f35b6103f561168e565b6040516104029190612a24565b60405180910390f35b610413611694565b60405161042091906128db565b60405180910390f35b610443600480360381019061043e91906123a0565b611722565b6040516104539493929190612918565b60405180910390f35b610476600480360381019061047191906126d3565b611a9d565b6040516104839190612827565b60405180910390f35b610494611adc565b6040516104a19190612a24565b60405180910390f35b6104b2611ae2565b6040516104bf9190612a24565b60405180910390f35b6104d0611aec565b005b6104ec60048036038101906104e791906126d3565b611b2e565b6040516104f99190612827565b60405180910390f35b61051c600480360381019061051791906123a0565b611b6d565b6040516105299190612a24565b60405180910390f35b61053a611bb6565b6040516105479190612a24565b60405180910390f35b61056a600480360381019061056591906123a0565b611bbc565b60405161057c96959493929190612979565b60405180910390f35b61059f600480360381019061059a91906124f7565b612047565b005b600080600760003373ffffffffffffffffffffffffffffffffffffffff1673ffffffffffffffffffffffffffffffffffffffff16815260200190815260200160002060008473ffffffffffffffffffffffffffffffffffffffff1673ffffffffffffffffffffffffffffffffffffffff16815260200190815260200160002060006101000a81548160ff02191690831515021790555060019050919050565b6002818154811061065057600080fd5b906000526020600020016000915054906101000a900473ffffffffffffffffffffffffffffffffffffffff1681565b6060600180548060200260200160405190810160405280929190818152602001828054801561070357602002820191906000526020600020905b8160009054906101000a900473ffffffffffffffffffffffffffffffffffffffff1673ffffffffffffffffffffffffffffffffffffffff16815260200190600101908083116106b9575b5050505050905090565b600860003373ffffffffffffffffffffffffffffffffffffffff1673ffffffffffffffffffffffffffffffffffffffff16815260200190815260200160002060009054906101000a900460ff1661076357600080fd5b6000600460003373ffffffffffffffffffffffffffffffffffffffff1673ffffffffffffffffffffffffffffffffffffffff1681526020019081526020016000209050868160000190805190602001906107be92919061226b565b50858160010190805190602001906107d792919061226b565b50848160020190805190602001906107f092919061226b565b508381600301908051906020019061080992919061226b565b508281600401908051906020019061082292919061226b565b508181600501908051906020019061083b92919061226b565b50338160060160006101000a81548173ffffffffffffffffffffffffffffffffffffffff021916908373ffffffffffffffffffffffffffffffffffffffff16021790555050505050505050565b600960003373ffffffffffffffffffffffffffffffffffffffff1673ffffffffffffffffffffffffffffffffffffffff16815260200190815260200160002060009054906101000a900460ff166108de57600080fd5b6000600660008973ffffffffffffffffffffffffffffffffffffffff1673ffffffffffffffffffffffffffffffffffffffff1681526020019081526020016000209050338160000160006101000a81548173ffffffffffffffffffffffffffffffffffffffff021916908373ffffffffffffffffffffffffffffffffffffffff160217905550878160010160006101000a81548173ffffffffffffffffffffffffffffffffffffffff021916908373ffffffffffffffffffffffffffffffffffffffff160217905550868160020190805190602001906109bf92919061226b565b50858160030190805190602001906109d892919061226b565b50848160060190805190602001906109f192919061226b565b5083816004019080519060200190610a0a92919061226b565b5082816005019080519060200190610a2392919061226b565b5081816007019080519060200190610a3c92919061226b565b504281600801819055506003889080600181540180825580915050600190039060005260206000200160009091909190916101000a81548173ffffffffffffffffffffffffffffffffffffffff021916908373ffffffffffffffffffffffffffffffffffffffff160217905550600d6000815480929190610abc90612bb1565b9190505550600a60008973ffffffffffffffffffffffffffffffffffffffff1673ffffffffffffffffffffffffffffffffffffffff1681526020019081526020016000206000815480929190610b1190612bb1565b91905055505050505050505050565b6000600e54905090565b600960003373ffffffffffffffffffffffffffffffffffffffff1673ffffffffffffffffffffffffffffffffffffffff16815260200190815260200160002060009054906101000a900460ff16610b8057600080fd5b6000600660008973ffffffffffffffffffffffffffffffffffffffff1673ffffffffffffffffffffffffffffffffffffffff1681526020019081526020016000209050338160000160006101000a81548173ffffffffffffffffffffffffffffffffffffffff021916908373ffffffffffffffffffffffffffffffffffffffff160217905550878160010160006101000a81548173ffffffffffffffffffffffffffffffffffffffff021916908373ffffffffffffffffffffffffffffffffffffffff16021790555086816002019080519060200190610c6192919061226b565b5085816003019080519060200190610c7a92919061226b565b5084816006019080519060200190610c9392919061226b565b5083816004019080519060200190610cac92919061226b565b5082816005019080519060200190610cc592919061226b565b5081816007019080519060200190610cde92919061226b565b505050505050505050565b6000600d54905090565b60006001600760003373ffffffffffffffffffffffffffffffffffffffff1673ffffffffffffffffffffffffffffffffffffffff16815260200190815260200160002060008473ffffffffffffffffffffffffffffffffffffffff1673ffffffffffffffffffffffffffffffffffffffff16815260200190815260200160002060006101000a81548160ff021916908315150217905550600e6000815480929190610d9d90612bb1565b919050555060019050919050565b600860003373ffffffffffffffffffffffffffffffffffffffff1673ffffffffffffffffffffffffffffffffffffffff16815260200190815260200160002060009054906101000a900460ff1615610e0257600080fd5b6000600460003373ffffffffffffffffffffffffffffffffffffffff1673ffffffffffffffffffffffffffffffffffffffff168152602001908152602001600020905086816000019080519060200190610e5d92919061226b565b5085816001019080519060200190610e7692919061226b565b5084816002019080519060200190610e8f92919061226b565b5083816003019080519060200190610ea892919061226b565b5082816004019080519060200190610ec192919061226b565b5081816005019080519060200190610eda92919061226b565b50338160060160006101000a81548173ffffffffffffffffffffffffffffffffffffffff021916908373ffffffffffffffffffffffffffffffffffffffff1602179055504281600701819055506001339080600181540180825580915050600190039060005260206000200160009091909190916101000a81548173ffffffffffffffffffffffffffffffffffffffff021916908373ffffffffffffffffffffffffffffffffffffffff1602179055506001600860003373ffffffffffffffffffffffffffffffffffffffff1673ffffffffffffffffffffffffffffffffffffffff16815260200190815260200160002060006101000a81548160ff0219169083151502179055506001600760003373ffffffffffffffffffffffffffffffffffffffff1673ffffffffffffffffffffffffffffffffffffffff16815260200190815260200160002060003373ffffffffffffffffffffffffffffffffffffffff1673ffffffffffffffffffffffffffffffffffffffff16815260200190815260200160002060006101000a81548160ff021916908315150217905550600b600081548092919061108a90612bb1565b919050555050505050505050565b60006060806060806060806000600660008a73ffffffffffffffffffffffffffffffffffffffff1673ffffffffffffffffffffffffffffffffffffffff16815260200190815260200160002090508060000160009054906101000a900473ffffffffffffffffffffffffffffffffffffffff1681600201826003018360060184600401856005018660070185805461112f90612b7f565b80601f016020809104026020016040519081016040528092919081815260200182805461115b90612b7f565b80156111a85780601f1061117d576101008083540402835291602001916111a8565b820191906000526020600020905b81548152906001019060200180831161118b57829003601f168201915b505050505095508480546111bb90612b7f565b80601f01602080910402602001604051908101604052809291908181526020018280546111e790612b7f565b80156112345780601f1061120957610100808354040283529160200191611234565b820191906000526020600020905b81548152906001019060200180831161121757829003601f168201915b5050505050945083805461124790612b7f565b80601f016020809104026020016040519081016040528092919081815260200182805461127390612b7f565b80156112c05780601f10611295576101008083540402835291602001916112c0565b820191906000526020600020905b8154815290600101906020018083116112a357829003601f168201915b505050505093508280546112d390612b7f565b80601f01602080910402602001604051908101604052809291908181526020018280546112ff90612b7f565b801561134c5780601f106113215761010080835404028352916020019161134c565b820191906000526020600020905b81548152906001019060200180831161132f57829003601f168201915b5050505050925081805461135f90612b7f565b80601f016020809104026020016040519081016040528092919081815260200182805461138b90612b7f565b80156113d85780601f106113ad576101008083540402835291602001916113d8565b820191906000526020600020905b8154815290600101906020018083116113bb57829003601f168201915b505050505091508080546113eb90612b7f565b80601f016020809104026020016040519081016040528092919081815260200182805461141790612b7f565b80156114645780601f1061143957610100808354040283529160200191611464565b820191906000526020600020905b81548152906001019060200180831161144757829003601f168201915b50505050509050975097509750975097509750975050919395979092949650565b600960003373ffffffffffffffffffffffffffffffffffffffff1673ffffffffffffffffffffffffffffffffffffffff16815260200190815260200160002060009054906101000a900460ff166114db57600080fd5b6000600560003373ffffffffffffffffffffffffffffffffffffffff1673ffffffffffffffffffffffffffffffffffffffff16815260200190815260200160002090508481600001908051906020019061153692919061226b565b508381600101908051906020019061154f92919061226b565b508281600201908051906020019061156892919061226b565b508181600301908051906020019061158192919061226b565b50338160040160006101000a81548173ffffffffffffffffffffffffffffffffffffffff021916908373ffffffffffffffffffffffffffffffffffffffff1602179055505050505050565b600c5481565b6000600c54905090565b60008054906101000a900473ffffffffffffffffffffffffffffffffffffffff1681565b6060600380548060200260200160405190810160405280929190818152602001828054801561168457602002820191906000526020600020905b8160009054906101000a900473ffffffffffffffffffffffffffffffffffffffff1673ffffffffffffffffffffffffffffffffffffffff168152602001906001019080831161163a575b5050505050905090565b600b5481565b6060600280548060200260200160405190810160405280929190818152602001828054801561171857602002820191906000526020600020905b8160009054906101000a900473ffffffffffffffffffffffffffffffffffffffff1673ffffffffffffffffffffffffffffffffffffffff16815260200190600101908083116116ce575b5050505050905090565b606080606080600960008673ffffffffffffffffffffffffffffffffffffffff1673ffffffffffffffffffffffffffffffffffffffff16815260200190815260200160002060009054906101000a900460ff16806117cb575060008054906101000a900473ffffffffffffffffffffffffffffffffffffffff1673ffffffffffffffffffffffffffffffffffffffff163373ffffffffffffffffffffffffffffffffffffffff16145b61180a576040517f08c379a000000000000000000000000000000000000000000000000000000000815260040161180190612a04565b60405180910390fd5b6000600560008773ffffffffffffffffffffffffffffffffffffffff1673ffffffffffffffffffffffffffffffffffffffff16815260200190815260200160002090508060000181600101826002018360030183805461186990612b7f565b80601f016020809104026020016040519081016040528092919081815260200182805461189590612b7f565b80156118e25780601f106118b7576101008083540402835291602001916118e2565b820191906000526020600020905b8154815290600101906020018083116118c557829003601f168201915b505050505093508280546118f590612b7f565b80601f016020809104026020016040519081016040528092919081815260200182805461192190612b7f565b801561196e5780601f106119435761010080835404028352916020019161196e565b820191906000526020600020905b81548152906001019060200180831161195157829003601f168201915b5050505050925081805461198190612b7f565b80601f01602080910402602001604051908101604052809291908181526020018280546119ad90612b7f565b80156119fa5780601f106119cf576101008083540402835291602001916119fa565b820191906000526020600020905b8154815290600101906020018083116119dd57829003601f168201915b50505050509150808054611a0d90612b7f565b80601f0160208091040260200160405190810160405280929190818152602001828054611a3990612b7f565b8015611a865780601f10611a5b57610100808354040283529160200191611a86565b820191906000526020600020905b815481529060010190602001808311611a6957829003601f168201915b505050505090509450945094509450509193509193565b60018181548110611aad57600080fd5b906000526020600020016000915054906101000a900473ffffffffffffffffffffffffffffffffffffffff1681565b600e5481565b6000600b54905090565b336000806101000a81548173ffffffffffffffffffffffffffffffffffffffff021916908373ffffffffffffffffffffffffffffffffffffffff160217905550565b60038181548110611b3e57600080fd5b906000526020600020016000915054906101000a900473ffffffffffffffffffffffffffffffffffffffff1681565b6000600a60008373ffffffffffffffffffffffffffffffffffffffff1673ffffffffffffffffffffffffffffffffffffffff168152602001908152602001600020549050919050565b600d5481565b606080606080606080600760008873ffffffffffffffffffffffffffffffffffffffff1673ffffffffffffffffffffffffffffffffffffffff16815260200190815260200160002060003373ffffffffffffffffffffffffffffffffffffffff1673ffffffffffffffffffffffffffffffffffffffff16815260200190815260200160002060009054906101000a900460ff16611c8e576040517f08c379a0000000000000000000000000000000000000000000000000000000008152600401611c8590612a04565b60405180910390fd5b6000600460008973ffffffffffffffffffffffffffffffffffffffff1673ffffffffffffffffffffffffffffffffffffffff1681526020019081526020016000209050806000018160010182600201836003018460040185600501858054611cf590612b7f565b80601f0160208091040260200160405190810160405280929190818152602001828054611d2190612b7f565b8015611d6e5780601f10611d4357610100808354040283529160200191611d6e565b820191906000526020600020905b815481529060010190602001808311611d5157829003601f168201915b50505050509550848054611d8190612b7f565b80601f0160208091040260200160405190810160405280929190818152602001828054611dad90612b7f565b8015611dfa5780601f10611dcf57610100808354040283529160200191611dfa565b820191906000526020600020905b815481529060010190602001808311611ddd57829003601f168201915b50505050509450838054611e0d90612b7f565b80601f0160208091040260200160405190810160405280929190818152602001828054611e3990612b7f565b8015611e865780601f10611e5b57610100808354040283529160200191611e86565b820191906000526020600020905b815481529060010190602001808311611e6957829003601f168201915b50505050509350828054611e9990612b7f565b80601f0160208091040260200160405190810160405280929190818152602001828054611ec590612b7f565b8015611f125780601f10611ee757610100808354040283529160200191611f12565b820191906000526020600020905b815481529060010190602001808311611ef557829003601f168201915b50505050509250818054611f2590612b7f565b80601f0160208091040260200160405190810160405280929190818152602001828054611f5190612b7f565b8015611f9e5780601f10611f7357610100808354040283529160200191611f9e565b820191906000526020600020905b815481529060010190602001808311611f8157829003601f168201915b50505050509150808054611fb190612b7f565b80601f0160208091040260200160405190810160405280929190818152602001828054611fdd90612b7f565b801561202a5780601f10611fff5761010080835404028352916020019161202a565b820191906000526020600020905b81548152906001019060200180831161200d57829003601f168201915b505050505090509650965096509650965096505091939550919395565b600960003373ffffffffffffffffffffffffffffffffffffffff1673ffffffffffffffffffffffffffffffffffffffff16815260200190815260200160002060009054906101000a900460ff161561209e57600080fd5b6000600560003373ffffffffffffffffffffffffffffffffffffffff1673ffffffffffffffffffffffffffffffffffffffff1681526020019081526020016000209050848160000190805190602001906120f992919061226b565b508381600101908051906020019061211292919061226b565b508281600201908051906020019061212b92919061226b565b508181600301908051906020019061214492919061226b565b50338160040160006101000a81548173ffffffffffffffffffffffffffffffffffffffff021916908373ffffffffffffffffffffffffffffffffffffffff1602179055504281600501819055506002339080600181540180825580915050600190039060005260206000200160009091909190916101000a81548173ffffffffffffffffffffffffffffffffffffffff021916908373ffffffffffffffffffffffffffffffffffffffff1602179055506001600960003373ffffffffffffffffffffffffffffffffffffffff1673ffffffffffffffffffffffffffffffffffffffff16815260200190815260200160002060006101000a81548160ff021916908315150217905550600c600081548092919061225f90612bb1565b91905055505050505050565b82805461227790612b7f565b90600052602060002090601f01602090048101928261229957600085556122e0565b82601f106122b257805160ff19168380011785556122e0565b828001600101855582156122e0579182015b828111156122df5782518255916020019190600101906122c4565b5b5090506122ed91906122f1565b5090565b5b8082111561230a5760008160009055506001016122f2565b5090565b600061232161231c84612a70565b612a3f565b90508281526020810184848401111561233957600080fd5b612344848285612b3d565b509392505050565b60008135905061235b81612c98565b92915050565b600082601f83011261237257600080fd5b813561238284826020860161230e565b91505092915050565b60008135905061239a81612caf565b92915050565b6000602082840312156123b257600080fd5b60006123c08482850161234c565b91505092915050565b600080600080600080600060e0888a0312156123e457600080fd5b60006123f28a828b0161234c565b975050602088013567ffffffffffffffff81111561240f57600080fd5b61241b8a828b01612361565b965050604088013567ffffffffffffffff81111561243857600080fd5b6124448a828b01612361565b955050606088013567ffffffffffffffff81111561246157600080fd5b61246d8a828b01612361565b945050608088013567ffffffffffffffff81111561248a57600080fd5b6124968a828b01612361565b93505060a088013567ffffffffffffffff8111156124b357600080fd5b6124bf8a828b01612361565b92505060c088013567ffffffffffffffff8111156124dc57600080fd5b6124e88a828b01612361565b91505092959891949750929550565b6000806000806080858703121561250d57600080fd5b600085013567ffffffffffffffff81111561252757600080fd5b61253387828801612361565b945050602085013567ffffffffffffffff81111561255057600080fd5b61255c87828801612361565b935050604085013567ffffffffffffffff81111561257957600080fd5b61258587828801612361565b925050606085013567ffffffffffffffff8111156125a257600080fd5b6125ae87828801612361565b91505092959194509250565b60008060008060008060c087890312156125d357600080fd5b600087013567ffffffffffffffff8111156125ed57600080fd5b6125f989828a01612361565b965050602087013567ffffffffffffffff81111561261657600080fd5b61262289828a01612361565b955050604087013567ffffffffffffffff81111561263f57600080fd5b61264b89828a01612361565b945050606087013567ffffffffffffffff81111561266857600080fd5b61267489828a01612361565b935050608087013567ffffffffffffffff81111561269157600080fd5b61269d89828a01612361565b92505060a087013567ffffffffffffffff8111156126ba57600080fd5b6126c689828a01612361565b9150509295509295509295565b6000602082840312156126e557600080fd5b60006126f38482850161238b565b91505092915050565b60006127088383612714565b60208301905092915050565b61271d81612af5565b82525050565b61272c81612af5565b82525050565b600061273d82612ab0565b6127478185612ad3565b935061275283612aa0565b8060005b8381101561278357815161276a88826126fc565b975061277583612ac6565b925050600181019050612756565b5085935050505092915050565b61279981612b07565b82525050565b60006127aa82612abb565b6127b48185612ae4565b93506127c4818560208601612b4c565b6127cd81612c87565b840191505092915050565b60006127e5602083612ae4565b91507f4e6f7420617070726f76656420746f20766965772074686973207265636f72646000830152602082019050919050565b61282181612b33565b82525050565b600060208201905061283c6000830184612723565b92915050565b600060e082019050612857600083018a612723565b8181036020830152612869818961279f565b9050818103604083015261287d818861279f565b90508181036060830152612891818761279f565b905081810360808301526128a5818661279f565b905081810360a08301526128b9818561279f565b905081810360c08301526128cd818461279f565b905098975050505050505050565b600060208201905081810360008301526128f58184612732565b905092915050565b60006020820190506129126000830184612790565b92915050565b60006080820190508181036000830152612932818761279f565b90508181036020830152612946818661279f565b9050818103604083015261295a818561279f565b9050818103606083015261296e818461279f565b905095945050505050565b600060c0820190508181036000830152612993818961279f565b905081810360208301526129a7818861279f565b905081810360408301526129bb818761279f565b905081810360608301526129cf818661279f565b905081810360808301526129e3818561279f565b905081810360a08301526129f7818461279f565b9050979650505050505050565b60006020820190508181036000830152612a1d816127d8565b9050919050565b6000602082019050612a396000830184612818565b92915050565b6000604051905081810181811067ffffffffffffffff82111715612a6657612a65612c58565b5b8060405250919050565b600067ffffffffffffffff821115612a8b57612a8a612c58565b5b601f19601f8301169050602081019050919050565b6000819050602082019050919050565b600081519050919050565b600081519050919050565b6000602082019050919050565b600082825260208201905092915050565b600082825260208201905092915050565b6000612b0082612b13565b9050919050565b60008115159050919050565b600073ffffffffffffffffffffffffffffffffffffffff82169050919050565b6000819050919050565b82818337600083830152505050565b60005b83811015612b6a578082015181840152602081019050612b4f565b83811115612b79576000848401525b50505050565b60006002820490506001821680612b9757607f821691505b60208210811415612bab57612baa612c29565b5b50919050565b6000612bbc82612b33565b91507fffffffffffffffffffffffffffffffffffffffffffffffffffffffffffffffff821415612bef57612bee612bfa565b5b600182019050919050565b7f4e487b7100000000000000000000000000000000000000000000000000000000600052601160045260246000fd5b7f4e487b7100000000000000000000000000000000000000000000000000000000600052602260045260246000fd5b7f4e487b7100000000000000000000000000000000000000000000000000000000600052604160045260246000fd5b6000601f19601f8301169050919050565b612ca181612af5565b8114612cac57600080fd5b50565b612cb881612b33565b8114612cc357600080fd5b5056fea26469706673582212204f11df39a8c849580bbfd82630af5ad112b20d6c64e46863c17f865407cb4a1664736f6c63430008000033",
  "immutableReferences": {},
  "source": "// SPDX-License-Identifier: UNLICENSED\r\npragma solidity ^0.8.0;\r\n\r\ncontract MedicalData {\r\n    \r\n    struct Patients {\r\n        string name;\r\n        string phone;\r\n        string gender;\r\n        string bloodgroup;\r\n        string allergies;\r\n        string medication;\r\n        address addr;\r\n        uint date;\r\n    }\r\n\r\n    struct Doctors {\r\n        string name;\r\n        string phone;\r\n        string gender;\r\n        string major;\r\n        address addr;\r\n        uint date;\r\n    }\r\n\r\n    struct Appointments {\r\n        address doctoraddr;\r\n        address patientaddr;\r\n        string date;\r\n        string time;\r\n        string prescription;\r\n        string description;\r\n        string diagnosis;\r\n        string status;\r\n        uint creationDate;\r\n    }\r\n    \r\n    address public owner;\r\n    address[] public patientList;\r\n    address[] public doctorList;\r\n    address[] public appointmentList;\r\n\r\n    mapping(address => Patients) patients;\r\n    mapping(address => Doctors) doctors;\r\n    mapping(address => Appointments) appointments;\r\n\r\n    mapping(address => mapping(address => bool)) isApproved;\r\n    mapping(address => bool) isPatient;\r\n    mapping(address => bool) isDoctor;\r\n    mapping(address => uint) AppointmentPerPatient;\r\n\r\n    uint256 public patientCount = 0;\r\n    uint256 public doctorCount = 0;\r\n    uint256 public appointmentCount = 0;\r\n    uint256 public permissionGrantedCount = 0;\r\n    \r\n    function Record() public {\r\n        owner = msg.sender;\r\n    }\r\n    \r\n    //Retrieve patient details from user sign up page and store the details into the blockchain\r\n    function setDetails(string memory _name, string memory _phone, string memory _gender, string memory _bloodgroup, string memory _allergies, string memory _medication) public {\r\n        require(!isPatient[msg.sender]);\r\n        Patients storage p = patients[msg.sender];\r\n        \r\n        p.name = _name;\r\n        p.phone = _phone;\r\n        p.gender = _gender;\r\n        p.bloodgroup = _bloodgroup;\r\n        p.allergies = _allergies;\r\n        p.medication = _medication;\r\n        p.addr = msg.sender;\r\n        p.date = block.timestamp;\r\n        \r\n        patientList.push(msg.sender);\r\n        isPatient[msg.sender] = true;\r\n        isApproved[msg.sender][msg.sender] = true;\r\n        patientCount++;\r\n    }\r\n    \r\n    //Allows patient to edit their existing record\r\n    function editDetails(string memory _name, string memory _phone, string memory _gender, string memory _bloodgroup, string memory _allergies, string memory _medication) public {\r\n        require(isPatient[msg.sender]);\r\n        Patients storage p = patients[msg.sender];\r\n        \r\n        p.name = _name;\r\n        p.phone = _phone;\r\n        p.gender = _gender;\r\n        p.bloodgroup = _bloodgroup;\r\n        p.allergies = _allergies;\r\n        p.medication = _medication;\r\n        p.addr = msg.sender;    \r\n    }\r\n\r\n    //Retrieve doctor details from doctor registration page and store the details into the blockchain\r\n    function setDoctor(string memory _name, string memory _phone, string memory _gender, string memory _major) public {\r\n        require(!isDoctor[msg.sender]);\r\n        Doctors storage d = doctors[msg.sender];\r\n        \r\n        d.name = _name;\r\n        d.phone = _phone;\r\n        d.gender = _gender;\r\n        d.major = _major;\r\n        d.addr = msg.sender;\r\n        d.date = block.timestamp;\r\n        \r\n        doctorList.push(msg.sender);\r\n        isDoctor[msg.sender] = true;\r\n        doctorCount++;\r\n    }\r\n\r\n    //Allows doctors to edit their existing profile\r\n    function editDoctor(string memory _name, string memory _phone, string memory _gender, string memory _major) public {\r\n        require(isDoctor[msg.sender]);\r\n        Doctors storage d = doctors[msg.sender];\r\n        \r\n        d.name = _name;\r\n        d.phone = _phone;\r\n        d.gender = _gender;\r\n        d.major = _major;\r\n        d.addr = msg.sender;\r\n    }\r\n\r\n    //Retrieve appointment details from appointment page and store the details into the blockchain\r\n    function setAppointment(address _addr, string memory _date, string memory _time, string memory _diagnosis, string memory _prescription, string memory _description, string memory _status) public {\r\n        require(isDoctor[msg.sender]);\r\n        Appointments storage a = appointments[_addr];\r\n        \r\n        a.doctoraddr = msg.sender;\r\n        a.patientaddr = _addr;\r\n        a.date = _date;\r\n        a.time = _time;\r\n        a.diagnosis = _diagnosis;\r\n        a.prescription = _prescription; \r\n        a.description = _description;\r\n        a.status = _status;\r\n        a.creationDate = block.timestamp;\r\n\r\n        appointmentList.push(_addr);\r\n        appointmentCount++;\r\n        AppointmentPerPatient[_addr]++;\r\n    }\r\n    \r\n    //Retrieve appointment details from appointment page and store the details into the blockchain\r\n    function updateAppointment(address _addr, string memory _date, string memory _time, string memory _diagnosis, string memory _prescription, string memory _description, string memory _status) public {\r\n        require(isDoctor[msg.sender]);\r\n        Appointments storage a = appointments[_addr];\r\n        \r\n        a.doctoraddr = msg.sender;\r\n        a.patientaddr = _addr;\r\n        a.date = _date;\r\n        a.time = _time;\r\n        a.diagnosis = _diagnosis;\r\n        a.prescription = _prescription; \r\n        a.description = _description;\r\n        a.status = _status;\r\n    }\r\n    \r\n    //Owner of the record must give permission to doctor only they are allowed to view records\r\n    function givePermission(address _address) public returns(bool success) {\r\n        isApproved[msg.sender][_address] = true;\r\n        permissionGrantedCount++;\r\n        return true;\r\n    }\r\n\r\n    //Owner of the record can take away the permission granted to doctors to view records\r\n    function RevokePermission(address _address) public returns(bool success) {\r\n        isApproved[msg.sender][_address] = false;\r\n        return true;\r\n    }\r\n\r\n    //Retrieve a list of all patients address\r\n    function getPatients() public view returns(address[] memory) {\r\n        return patientList;\r\n    }\r\n\r\n    //Retrieve a list of all doctors address\r\n    function getDoctors() public view returns(address[] memory) {\r\n        return doctorList;\r\n    }\r\n\r\n    //Retrieve a list of all appointments address\r\n    function getAppointments() public view returns(address[] memory) {\r\n        return appointmentList;\r\n    }\r\n\r\n    //Retrieve patient count\r\n    function getPatientCount() public view returns(uint256) {\r\n        return patientCount;\r\n    }\r\n\r\n    //Retrieve doctor count\r\n    function getDoctorCount() public view returns(uint256) {\r\n        return doctorCount;\r\n    }\r\n\r\n    //Retrieve appointment count\r\n    function getAppointmentCount() public view returns(uint256) {\r\n        return appointmentCount;\r\n    }\r\n\r\n    //Retrieve permission granted count\r\n    function getPermissionGrantedCount() public view returns(uint256) {\r\n        return permissionGrantedCount;\r\n    }\r\n\r\n    //Retrieve permission granted count\r\n    function getAppointmentPerPatient(address _address) public view returns(uint256) {\r\n        return AppointmentPerPatient[_address];\r\n    }\r\n\r\n    //Retrieve patient details by address\r\n    function getPatientDetails(address _address) public view returns (string memory, string memory, string memory, string memory, string memory, string memory) {\r\n        require(isApproved[_address][msg.sender], \"Not approved to view this record\");\r\n        Patients storage p = patients[_address];\r\n        return (p.name, p.phone, p.gender, p.bloodgroup, p.allergies, p.medication);\r\n    }\r\n\r\n    //Retrieve doctor details by address\r\n    function getDoctorDetails(address _address) public view returns (string memory, string memory, string memory, string memory) {\r\n        require(isDoctor[_address] || msg.sender == owner, \"Not approved to view this record\");\r\n        Doctors storage d = doctors[_address];\r\n        return (d.name, d.phone, d.gender, d.major);\r\n    }\r\n\r\n    //Retrieve appointment details by address\r\n    function getAppointmentDetails(address _address) public view returns (address, string memory, string memory, string memory, string memory, string memory, string memory) {\r\n        Appointments storage a = appointments[_address];\r\n        return (a.doctoraddr, a.date, a.time, a.diagnosis, a.prescription, a.description, a.status);\r\n    }\r\n}\r\n",
  "sourcePath": "D:\\medcare-dapp\\contracts\\MedicalData.sol",
  "compiler": {
    "name": "solc",
    "version": "0.8.0+commit.c7dfd78e.Emscripten.clang"
  },
  "schemaVersion": "3.4.16",
  "updatedAt": "2024-06-30T16:27:19.663Z",
  "networkType": "ethereum",
  "devdoc": {
    "kind": "dev",
    "methods": {},
    "version": 1
  },
  "userdoc": {
    "kind": "user",
    "methods": {},
    "version": 1
  }
}